:100000000C9434000C9451000C9451000C94510049
:100010000C9451000C9451000C9451000C9451001C
:100020000C9451000C9451000C9451000C9451000C
:100030000C9451000C9451000C9485000C945100C8
:100040000C9451000C9451000C9451000C945100EC
:100050000C9451000C9451000C9451000C945100DC
:100060000C9451000C94510011241FBECFEFD8E026
:10007000DEBFCDBF11E0A0E0B1E0E0E2F3E002C0FE
:1000800005900D92A230B107D9F721E0A2E0B1E0CE
:1000900001C01D92A930B207E1F70E9471000C94D3
:1000A0008E010C940000EAE7F0E08081876880838D
:1000B000ECE7F0E08081836480830895EAE7F0E074
:1000C00080818064808380917A0086FFFCCFEAE79C
:1000D000F0E0808180618083809178009091790048
:1000E00008950E946C010E9474010E94BC000E944D
:1000F00049010E9453007894809104018823E1F320
:100100000E94C20010920401F7CF1F920F920FB607
:100110000F9211242F933F934F935F936F937F938D
:100120008F939F93AF93BF93EF93FF930E9423010D
:1001300080910201909103010196909303018093B5
:100140000201853F944039F481E0809304011092CC
:10015000030110920201FF91EF91BF91AF919F9126
:100160008F917F916F915F914F913F912F910F9060
:100170000FBE0F901F901895109208018FEF80937B
:1001800007010895809107018F5F80930701909187
:1001900008019130D1F028F0923001F19330B9F19B
:1001A00008958A3030F449E16FE085E00E94520101
:1001B000089545E063E086E00E94520181E080936B
:1001C00008018FEF8093070108958431D9F582E00B
:1001D000809308018FEF8093070108958A3030F4EF
:1001E00047EE61EF8BEF0E94520108954BEF6DEFE8
:1001F0008AEF0E9452010E94880185B1806285B910
:1002000083E0809308018FEF8093070108950E9497
:100210005E009093060180930501819761F48091BF
:1002200007018C3379F40E948201109208018FEF4C
:100230008093070108950E948201109208018FEFB8
:10024000809307010895809100018F5F80930001E2
:100250008F3F31F41092000185B1806285B9089515
:1002600090910101891720F485B18F7D85B908959A
:1002700085B1806285B908958093010170E0709323
:100280008B0060938A0050E050938900409388006F
:10029000089584B1866284B940E060E080E00E9405
:1002A0003C01089590910101890F80930101EAE8D2
:1002B000F0E080819181860F911D67FD9A95918371
:1002C0008083E8E8F0E080819181840F911D47FDF3
:1002D0009A959183808308958EE487BD82E084BDE2
:1002E00085BD80936E000895E1E8F0E080818D6027
:1002F0008083E0E8F0E08081816C8083808180638E
:1003000080830895E1E8F0E080818560808308952E
:10031000E1E8F0E080818A7F80830895F894FFCF40
:02032000FF01DB
:00000001FF
