:100000000C9434000C9449000C9449000C94490061
:100010000C9449000C9449000C9449000C9449003C
:100020000C9449000C9449000C9449000C9449002C
:100030000C9449000C9449000C948D000C944900D8
:100040000C9449000C9449000C9449000C9449000C
:100050000C9449000C9449000C9449000C944900FC
:100060000C9449000C94490011241FBECFEFD8E036
:10007000DEBFCDBF11E0A0E0B1E0E6E6F1E002C0F6
:1000800005900D92A230B107D9F70E9462000C943E
:10009000B1000C940000809100018F5F80930001FB
:1000A0008F3F31F41092000185B1806285B90895C7
:1000B000833320F485B18F7D85B9089585B1806241
:1000C00085B9089584B1866284B90E946B000E944C
:1000D00073007894FFCF8EE487BD82E084BD85BD38
:1000E00080936E000895E1E8F0E080818D60808368
:1000F000E0E8F0E08081816C808380818063808390
:100100008FEF90E0909389008093880089E990E0D8
:1001100090938B0080938A0008951F920F920FB6E0
:100120000F9211242F933F934F935F936F937F937D
:100130008F939F93AF93BF93EF93FF930E944B00D6
:10014000FF91EF91BF91AF919F918F917F916F91AF
:100150005F914F913F912F910F900FBE0F901F9085
:060160001895F894FFCF92
:02016600FF0098
:00000001FF
