:100000000C9434000C9451000C9451000C94510049
:100010000C9451000C9451000C9451000C9451001C
:100020000C9451000C9451000C9451000C9451000C
:100030000C9451000C9451000C949A000C945100B3
:100040000C9451000C9451000C9451000C945100EC
:100050000C9451000C9451000C9451000C945100DC
:100060000C9451000C94510011241FBECFEFD8E026
:10007000DEBFCDBF11E0A0E0B1E0E2E2F3E002C0FC
:1000800005900D92A230B107D9F721E0A2E0B1E0CE
:1000900001C01D92A930B207E1F70E9486000C94BE
:1000A0008F010C94000087B1877F87B9ECE7F0E0FF
:1000B00080818064808380818F7D80838081836064
:1000C0008083EAE7F0E08081866880830895ECE72A
:1000D000F0E08081807F8083808183608083EAE795
:1000E000F0E080818064808380917A0084FFFCCF7F
:1000F000EAE7F0E080818061808320917800809140
:10010000790090E0982F8827822B08950E9479012A
:100110000E9481010E94D1000E9456010E9453005A
:100120007894809104018823E1F30E94D700109213
:100130000401F7CF1F920F920FB60F9211242F9345
:100140003F934F935F936F937F938F939F93AF935F
:10015000BF93EF93FF930E94300180910201909131
:10016000030101969093030180930201853F94401F
:1001700039F481E08093040110920301109202018E
:10018000FF91EF91BF91AF919F918F917F916F916F
:100190005F914F913F912F910F900FBE0F901F9045
:1001A0001895109208018FEF8093070108958091B0
:1001B00007018F5F80930701909108019130D1F082
:1001C00028F0923001F1933091F108958A3030F4A3
:1001D00049E16FE085E00E945F01089545E063E03A
:1001E00086E00E945F0181E0809308018FEF809399
:1001F00007010895843199F582E0809308018FEF1B
:100200008093070108958A3030F447EE61EF8BEF59
:100210000E945F0108954BEF6DEF8AEF0E945F012E
:1002200083E0809308018FEF8093070108950E9477
:10023000670090930601809305018115944051F465
:1002400080910701843659F4109208018FEF809352
:1002500007010895109208018FEF80930701089518
:10026000809100018F5F809300018F3F31F41092E5
:10027000000185B1806285B90895909101018917C7
:1002800020F485B18F7D85B9089585B1806285B9E7
:1002900008958093010170E070938B0060938A0051
:1002A00050E05093890040938800089584B186629D
:1002B00084B940E060E080E00E9449010895909197
:1002C0000101890F80930101EAE8F0E080819181CA
:1002D000860F911D67FD9A9591838083E8E8F0E091
:1002E00080819181840F911D47FD9A959183808330
:1002F00008958EE487BD82E084BD85BD80936E0045
:100300000895E1E8F0E080818D608083E0E8F0E02E
:100310008081816C80838081806380830895F894DC
:02032000FFCF0D
:02032200FF01D9
:00000001FF
