:100000000C9434000C9449000C9449000C94490061
:100010000C9449000C9449000C9449000C9449003C
:100020000C9449000C9449000C9449000C9449002C
:100030000C9449000C9449000C948B000C944900DA
:100040000C9449000C9449000C9449000C9449000C
:100050000C9449000C9449000C9449000C944900FC
:100060000C9449000C94490011241FBECFEFD8E036
:10007000DEBFCDBF11E0A0E0B1E0E2E6F1E002C0FA
:1000800005900D92A230B107D9F70E9462000C943E
:10009000AF000C940000809100018F5F80930001FD
:1000A0008F3F31F41092000185B1806285B90895C7
:1000B0008F3F21F085B1806285B9089585B18F7D2C
:1000C00085B9089584B1866284B90E946B000E944C
:1000D00073007894FFCF8EE487BD82E084BD85BD38
:1000E00080936E000895E1E8F0E080818D60808368
:1000F000E0E8F0E08081816C808380818063808390
:100100008FEF90E0909389008093880090938B000C
:1001100080938A0008951F920F920FB60F921124B8
:100120002F933F934F935F936F937F938F939F93FF
:10013000AF93BF93EF93FF930E944B00FF91EF911A
:10014000BF91AF919F918F917F916F915F914F91EF
:100150003F912F910F900FBE0F901F901895F8941C
:02016000FFCFCF
:02016200FF009C
:00000001FF
