S00C0000636F64652E737265637D
S11300000C9434000C9451000C9451000C94510045
S11300100C9451000C9451000C9451000C94510018
S11300200C9451000C9451000C9451000C94510008
S11300300C9451000C9451000C9465000C945100E4
S11300400C9451000C9451000C9451000C945100E8
S11300500C9451000C9451000C9451000C945100D8
S11300600C9451000C94510011241FBECFEFD8E022
S1130070DEBFCDBF11E0A0E0B1E0EEEAF2E002C0E5
S113008005900D92A230B107D9F721E0A2E0B1E0CA
S113009001C01D92A730B207E1F70E9453000C94EF
S11300A055010C9400000E943F010E9447010E94E8
S11300B09C000E941C017894809104018823E1F340
S11300C00E94A20010920401F7CF1F920F920FB664
S11300D00F9211242F933F934F935F936F937F93CA
S11300E08F939F93AF93BF93EF93FF930E94F60078
S11300F080910201909103010196909303018093F2
S11301000201853F944039F481E080930401109208
S1130110030110920201FF91EF91BF91AF919F9162
S11301208F917F916F915F914F913F912F910F909C
S11301300FBE0F901F901895109206018FEF8093B9
S113014005010895809105018F5F809305019091C9
S11301500601913001F128F0923031F19330F1F140
S113016008958A3048F449E150E06FE070E085E09A
S113017090E00E942501089545E050E063E070E0BE
S113018081E090E00E94250181E0809306018FEFD9
S1130190809305010895843141F582E0809306013E
S11301A08FEF8093050108958A3048F447EE5FEF9E
S11301B061EF7FEF8BEF9FEF0E94250108954BEFD6
S11301C05FEF6DEF7FEF8FEF9FEF0E94250183E0DC
S11301D0809306018FEF809305010895843129F4FB
S11301E0109206018FEF809305010895809100011C
S11301F08F5F809300018F3F31F41092000185B12D
S1130200806285B9089590910101891720F485B120
S11302108F7D85B9089585B1806285B908958093ED
S1130220010170E070938B0060938A0050E050935A
S1130230890040938800089584B1866284B940E0BF
S113024060E080E00E940F01089590910101890F00
S113025080930101EAE8F0E080819181860F911D8D
S113026067FD9A9591838083E8E8F0E0808191812D
S1130270840F911D47FD9A959183808308958EE4A0
S113028087BD82E084BD85BD80936E000895E1E85A
S1130290F0E080818D608083E0E8F0E08081816C13
S11102A080838081806380830895F894FFCF6B
S10502AEFF014A
S9030000FC
