S00C0000636F64652E737265637D
S11300000C9434000C9451000C9451000C94510045
S11300100C9451000C9451000C9451000C94510018
S11300200C9451000C9451000C9451000C94510008
S11300300C9451000C9451000C94B6000C94510093
S11300400C9451000C9451000C9451000C945100E8
S11300500C9451000C9451000C9451000C945100D8
S11300600C9451000C94510011241FBECFEFD8E022
S1130070DEBFCDBF11E0A0E0B1E0ECEDF1E002C0E5
S113008005900D92A230B107D9F721E0A2E0B1E0CA
S113009001C01D92A530B207E1F70E9457000C94ED
S11300A0EC000C94000081E08093020108950E940A
S11300B06A000E9494000E949C0041E061E98FEF75
S11300C00E9487007894809102018823E1F31092C2
S11300D00201F9CF84B1866284B908958091000148
S11300E08F5F809300018F3F31F41092000185B13E
S11300F0806285B9089590910101891720F485B132
S11301008F7D85B9089585B1806285B908958093FE
S1130110010170E070938B0060938A0050E050936B
S113012089004093880008958EE487BD82E084BDF1
S113013085BD80936E000895E1E8F0E080818D60D4
S11301408083E0E8F0E08081816C8083808180633B
S113015080838FEF90E0909389008093880089E9F1
S113016090E090938B0080938A0008951F920F92E1
S11301700FB60F9211242F933F934F935F936F9376
S11301807F938F939F93AF93BF93EF93FF930E94BB
S11301906E008091030190910401019690930401F3
S11301A0809303018E37910531F40E94530010921D
S11301B0040110920301FF91EF91BF91AF919F91C0
S11301C08F917F916F915F914F913F912F910F90FC
S10F01D00FBE0F901F901895F894FFCFFD
S10501DCFF011D
S9030000FC
