S00C0000636F64652E737265637D
S11300000C9434000C9451000C9451000C94510045
S11300100C9451000C9451000C9451000C94510018
S11300200C9451000C9451000C9451000C94510008
S11300300C9451000C9451000C9494000C945100B5
S11300400C9451000C9451000C9451000C945100E8
S11300500C9451000C9451000C9451000C945100D8
S11300600C9451000C94510011241FBECFEFD8E022
S1130070DEBFCDBF11E0A0E0B1E0E4E1F3E002C0F7
S113008005900D92A230B107D9F721E0A2E0B1E0CA
S113009001C01D92AB30B207E1F70E9480000C94BE
S11300A088010C940000EAE7F0E080818760808397
S11300B0808180688083ECE7F0E0808180648083C5
S11300C08081836080830895ECE7F0E08081836021
S11300D08083EAE7F0E080818064808380917A0005
S11300E086FDFCCFEAE7F0E0808180618083809127
S11300F07800909179009093030180930201089510
S11301000E9472010E947A010E94CB000E944F015A
S11301100E9453007894809106018823E1F30E94A1
S1130120D10010920601F7CF1F920F920FB60F92D3
S113013011242F933F934F935F936F937F938F93E8
S11301409F93AF93BF93EF93FF930E9429018091F4
S11301500401909105010196909305018093040197
S1130160853F944039F481E08093060110920501A3
S113017010920401FF91EF91BF91AF919F918F91E4
S11301807F916F915F914F913F912F910F900FBE8F
S11301900F901F90189510920A018FEF8093090118
S11301A00895809109018F5F8093090190910A015C
S11301B09130D1F028F0923001F1933091F108950B
S11301C08A3030F449E16FE085E00E9458010895D7
S11301D045E063E086E00E94580181E080930A01D3
S11301E08FEF809309010895843191F582E0809323
S11301F00A018FEF8093090108958A3030F447EEA5
S113020061EF8BEF0E94580108954BEF6DEF8AEF79
S11302100E94580183E080930A018FEF80930901C3
S113022008950E94640090930801809307018197C8
S113023051F4809109018C3359F410920A018FEF23
S113024080930901089510920A018FEF80930901A8
S11302500895809100018F5F809300018F3F31F4F6
S11302601092000185B1806285B9089590910101D1
S1130270891720F485B18F7D85B9089585B1806291
S113028085B908958093010170E070938B006093A9
S11302908A0050E05093890040938800089584B107
S11302A0866284B940E060E080E00E9442010895E3
S11302B090910101890F80930101EAE8F0E08081C7
S11302C09181860F911D67FD9A9591838083E8E85B
S11302D0F0E080819181840F911D47FD9A9591836F
S11302E0808308958EE487BD82E084BD85BD8093BC
S11302F06E000895E1E8F0E080818D608083E0E89D
S1130300F0E08081816C80838081806380830895A4
S1070310F894FFCF8B
S1050314FF01E3
S9030000FC
