:100000000C9434000C9449000C9449000C94490061
:100010000C9449000C9449000C9449000C9449003C
:100020000C9449000C9449000C9449000C9449002C
:100030000C9449000C9449000C948E000C944900D7
:100040000C9449000C9449000C9449000C9449000C
:100050000C9449000C9449000C9449000C944900FC
:100060000C9449000C94490011241FBECFEFD8E036
:10007000DEBFCDBF11E0A0E0B1E0E8E6F1E002C0F4
:1000800005900D92A230B107D9F70E9462000C943E
:10009000B2000C940000809100018F5F80930001FA
:1000A0008A3030F01092000185B1806285B90895E0
:1000B000853020F485B1806285B9089585B18F7D42
:1000C00085B9089584B1866284B90E946B000E944C
:1000D00074007894FFCF89EF87BD82E084BD93E000
:1000E00095BD80936E000895E1E8F0E080818D6019
:1000F0008083E0E8F0E08081816C80838081806390
:1001000080838AE090E0909389008093880088EC57
:1001100090E090938B0080938A0008951F920F9235
:100120000FB60F9211242F933F934F935F936F93CA
:100130007F938F939F93AF93BF93EF93FF930E940F
:100140004B00FF91EF91BF91AF919F918F917F9164
:100150006F915F914F913F912F910F900FBE0F9034
:080160001F901895F894FFCFE1
:02016800FF0096
:00000001FF
