:100000000C9434000C9451000C9451000C94510049
:100010000C9451000C9451000C9451000C9451001C
:100020000C9451000C9451000C9451000C9451000C
:100030000C9451000C9451000C941A010C94510032
:100040000C9451000C9451000C9451000C945100EC
:100050000C9451000C9451000C9451000C945100DC
:100060000C9451000C94510011241FBECFEFD8E026
:10007000DEBFCDBF11E0A0E0B1E0E4EAF2E002C0F3
:1000800005900D92A430B107D9F721E0A4E0B1E0CA
:1000900001C01D92A830B207E1F70E949F000C94A6
:1000A00050010C94000081E0809304010895809138
:1000B00000018F5F80930001909105019130D1F094
:1000C00028F0923001F1933091F10895843630F4A4
:1000D00042E061E080E00E94DE0008954FEF69E9B0
:1000E00083E30E94D10081E0809305018FEF80932C
:1000F00000010895883C10F582E0809305018FEFA0
:10010000809300010895843630F44EEF6FEF80E065
:100110000E94DE00089541E061E081E00E94D1008C
:1001200083E0809305018FEF809300010895883C60
:1001300028F4109205018FEF8093000108950E942A
:10014000B4000E94F8000E94000141E061E98FEFD5
:100150000E94D1007894809104018823E1F30E94E9
:10016000570010920401F7CF84B1866284B90895D4
:10017000809101018F5F809301018F3F31F41092D4
:10018000010185B1806285B90895909102018917B6
:1001900020F485B18F7D85B9089585B1806285B9D8
:1001A00008958093020170E070938B0060938A0041
:1001B00050E0509389004093880008959091020187
:1001C000890F80930201EAE8F0E080819181860F37
:1001D000911D67FD9A9591838083E8E8F0E0808126
:1001E0009181840F911D47FD9A9591838083089595
:1001F0008EE487BD82E084BD85BD80936E00089546
:10020000E1E8F0E080818D608083E0E8F0E08081CB
:10021000816C80838081806380838FEF90E09093F6
:1002200089008093880089E990E090938B00809307
:100230008A0008951F920F920FB60F9211242F93E8
:100240003F934F935F936F937F938F939F93AF935E
:10025000BF93EF93FF930E94B800809106019091A5
:100260000701019690930701809306018E3791054F
:1002700031F40E9453001092070110920601FF9181
:10028000EF91BF91AF919F918F917F916F915F910E
:100290004F913F912F910F900FBE0F901F90189587
:0402A000F894FFCF00
:0402A400FFFF010057
:00000001FF
