S00C0000636F64652E737265637D
S11300000C9434000C9449000C9449000C9449005D
S11300100C9449000C9449000C9449000C94490038
S11300200C9449000C9449000C9449000C94490028
S11300300C9449000C9449000C94A4000C944900BD
S11300400C9449000C9449000C9449000C94490008
S11300500C9449000C9449000C9449000C944900F8
S11300600C9449000C94490011241FBECFEFD8E032
S1130070DEBFCDBF11E0A0E0B1E0E4E9F1E002C0F1
S113008005900D92A230B107D9F70E944B000C9451
S1130090C8000C9400000E9458000E9482000E9434
S11300A08A0041E061E98FEF0E9475007894FFCFE8
S11300B084B1866284B90895809100018F5F809332
S11300C000018F3F31F41092000185B1806285B93F
S11300D0089590910101891720F485B18F7D85B928
S11300E0089585B1806285B908958093010170E017
S11300F070938B0060938A0050E050938900409382
S1130100880008958EE487BD82E084BD85BD809318
S11301106E000895E1E8F0E080818D608083E0E87E
S1130120F0E08081816C80838081806380838FEFA5
S113013090E0909389008093880089E990E09093FF
S11301408B0080938A0008951F920F920FB60F922E
S113015011242F933F934F935F936F937F938F93C8
S11301609F93AF93BF93EF93FF930E945C00FF9123
S1130170EF91BF91AF919F918F917F916F915F911B
S11301804F913F912F910F900FBE0F901F90189594
S1070190F894FFCF0D
S1050194FF0165
S9030000FC
