S00C0000636F64652E737265637D
S11300000C9434000C9451000C9451000C94510045
S11300100C9451000C9451000C9451000C94510018
S11300200C9451000C9451000C9451000C94510008
S11300300C9451000C9451000C9405010C94510043
S11300400C9451000C9451000C9451000C945100E8
S11300500C9451000C9451000C9451000C945100D8
S11300600C9451000C94510011241FBECFEFD8E022
S1130070DEBFCDBF11E0A0E0B1E0EAE7F2E002C0EC
S113008005900D92A430B107D9F721E0A4E0B1E0C6
S113009001C01D92A830B207E1F70E9496000C94AB
S11300A03B010C94000081E0809304010895809149
S11300B000018F5F80930001909105019130A9F0B8
S11300C028F09230C9F0933059F10895843630F411
S11300D042E061E081E00E94D500089581E08093D0
S11300E005018FEF80930001089582E0809305015C
S11300F08FEF809300010895843630F44EEF6FEF54
S11301008FEF0E94D500089541E061E081E00E94F4
S1130110BF0083E0809305018FEF80930001089571
S1130120109205018FEF8093000108950E94EF0063
S11301300E94F7000E94CC007894809104018823E7
S1130140E1F30E94570010920401F7CF809101015E
S11301508F5F809301018F3F31F41092010185B1CB
S1130160806285B9089590910201891720F485B1C0
S11301708F7D85B9089585B1806285B9089580938E
S1130180020170E070938B0060938A0050E05093FA
S1130190890040938800089584B1866284B941E05F
S11301A061E081E00E94BF00089590910201890FEF
S11301B080930201EAE8F0E080819181860F911D2D
S11301C067FD9A9591838083E8E8F0E080819181CE
S11301D0840F911D47FD9A959183808308958EE441
S11301E087BD82E084BD85BD80936E000895E1E8FB
S11301F0F0E080818D608083E0E8F0E08081816CB4
S1130200808380818063808308951F920F920FB64C
S11302100F9211242F933F934F935F936F937F9388
S11302208F939F93AF93BF93EF93FF930E94A60086
S113023080910601909107010196909307018093A4
S113024006018E37910531F40E9453001092070184
S113025010920601FF91EF91BF91AF919F918F9101
S11302607F916F915F914F913F912F910F900FBEAE
S10D02700F901F901895F894FFCF2B
S107027AFFFF01007D
S9030000FC
